:020000040800F2
:20000000284400209D0F0008790F00087B0F00087D0F00087F0F0008810F000800000000BC
:20002000000000000000000000000000830F0008850F000800000000870F0008890F00084C
:20004000B90F0008BD0F0008C10F0008C50F0008C90F0008CD0F0008D10F0008D50F0008B0
:20006000D90F0008DD0F0008E10F0008E50F0008E90F0008ED0F0008F10F0008F50F000890
:20008000F90F0008FD0F00080110000805100008091000080D10000811100008151000086A
:2000A000191000081D1000082110000825100008291000082D100008311000083510000848
:2000C000391000083D1000084110000845100008491000084D100008511000085510000828
:2000E000591000085D1000086110000865100008691000086D100008711000087510000808
:20010000791000087D1000088110000885100008891000088D1000089110000895100008E7
:20012000991000089D100008A1100008A5100008A9100008AD100008B1100008B5100008C7
:20014000B9100008BD100008C1100008C5100008C9100008CD100008D1100008D5100008A7
:20016000D9100008DD100008E1100008E5100008E9100008ED100008F11000080000000094
:20018000F5100008F91000082DE9F8430446DFF834562078DFF82466C00626D5B06810F073
:2001A0000C0F3AD13068800702D5A069002832D0306800074EBF30686868000900F0F001F2
:2001C000206A814206D200F0BBFA002823D100F0AAF905E000F0A7F9206A00F0B1FAD0B983
:2001E00000F057FAB26800F040FA2078C00767D500F095F9082808D000F091F90C2802BFEA
:20020000F06800F0030003282AD13068800357D56068002854D101207CE1A06900283068CA
:2002200010D040F0010000F077F907463068800705D400F0DBFAC01B0328F7D367E100F03B
:2002400072F9D2E74008400000F066F9074630688007CAD500F0CAFAC01B0328F7D356E1DD
:200260006068B0F5803F06D0B0F5A02F306806D140F480203060306840F4803005E020F4C0
:2002800080303060306820F480203060606858B100F0ACFA07463068800311D400F0A6FAFE
:2002A000C01B6528F7D332E100F0A0FA07463068800305D500F09AFAC01B6528F7D326E170
:2002C0002078800719D500F02AF9042808D000F026F90C2802BFF06800F00300022822D18E
:2002E0003068400502D5E068002894D07068216920F0F85040EA016070602078000741D5AC
:200300006069002868682ED040F00100686000F06DFA07466868800734D400F067FAC01BF6
:200320000328F7D3F3E0E068002830680DD040F4807000F0F1F8074630684005D6D400F04F
:2003400055FAC01B0328F7D3E1E020F4807000F0E3F8074630684005CFD500F047FAC01B14
:200360000328F7D3D3E040084000686000F03EFA07466868800705D500F038FAC01B0328B7
:20038000F7D3C4E0207840075FD5B06DC0004FF000080AD4B06D40F08050B0654FF0010860
:2003A000B06D00F0805000900098DFF81C94D9F80000C00512D4D9F8000040F48070C9F87F
:2003C000000000F013FA0746D9F80000C00505D400F00CFAC01B0328F6D398E0A0680128F6
:2003E00005D00528286806D140F004002860286840F0010005E0400840002860286820F082
:200400000400286041F28939A06858B100F0EEF907462868800711D400F0E8F9C01B4845F1
:20042000F7D374E000F0E2F907462868800705D500F0DCF9C01B4845F7D368E0B8F1000F9E
:2004400003D0B06D20F08050B065A06A002860D0B16801F00C010C293FF4DDAE0228306889
:2004600020F08070306038D100F0C0F907463068800105D500F0BAF9C01B0328F7D346E061
:20048000206B616B401E090241EA0010A16B090940EA4140E16A0843E16B891E0905490DAB
:2004A00040EA4150216C891E090601F07E410843F060306840F080703060F06840F0807033
:2004C000F06000F093F907463068800121D400F08DF9C01B0328F7D319E03068000106D443
:2004E0003068800003D4F06880088000F060F068DFF8D8120840F06000F078F90746306866
:20050000800106D500F072F9C01B0328F7D3032000E00020BDE8F283306000F067B9B0685F
:2005200000F00C007047306840F0080030603068216A20F0F000084330607068E16920F474
:200540007F4040EA0120706070472DE9F843DFF8806204463068884600F00700404502D200
:2005600000F08DF864D12078DFF85072800705D5B868A16820F0F0000843B8602078C00754
:200580004ED56068022802D13968890308E0032802D13968890103E00028396802D1890726
:2005A00002D445E0490543D5B968890840EA8100B86041F2893900F019F905466068022831
:2005C0000AD1B86800F00C00082829D000F00EF9401B4845F5D321E003280AD1B86800F03D
:2005E0000C000C281CD000F001F9401B4845F5D314E048B9B86810F00C0F11D000F0F6F846
:20060000401B4845F6D309E0B86800F00C00042806D000F0EBF8401B4845F5D3032022E07A
:20062000306800F00700804504D200F028F801D0012018E02078400705D5B868E16820F460
:20064000E0600843B8602078000706D5B868216920F4605040EAC100B86000F01AF8BA68E8
:2006600000F003F80020BDE8F2835A49C2F30312895CC840524908600F2000F0BDB83068CC
:20068000C00848EAC0003060306800F00700404570474A498B680022002013F00C0F09D086
:2006A0008B6803F00C030C2B02BFCB6803F00303012B13D10A68120704D4474A1268C2F3EE
:2006C000032202E00A68C2F30312444B53F822208B6813F00C0F0ED110460CE08B6803F0A3
:2006E0000C03042B08BF3E4805D08B6803F00C03082B08BF3B488B6803F00C030C2B1ED10D
:20070000C868CB68C3F302135B1C00F00300022802D0032802D005E0314800E03148B0FBE6
:20072000F3F001E0B2FBF3F0CA68C968C1F34161C2F30622491C50434900B0FBF1F070474B
:2007400070B5294E82B0054630680024C00002D500F066F80EE0306840F080503060306831
:2007600000F080500090009800F05AF8316821F080513160B0F5007F04D1812D0DD3A12DEE
:200780000AD305E0812D28BF032406D2802D01D1022402E0702D00D101240D480168C9085A
:2007A00044EAC1010160006800F00700A04201D0012076BD002076BD0000000000100240DD
:2007C000004000209010024000700040FFFFEEFE00200240600E000894100240700E0008F9
:2007E0000024F40000127A005810024001480068704700BF0440002010B50446074800685A
:200800004FF47A71B0FBF1F000F056F8002221464FF0FF3000F026F8002010BD004000208E
:20082000DFF80800006800F4C0607047007000400901002802D42A4A11547047294A00F0FB
:200840000F00104400F8041C704727490A684FF6FF0300021A4000F4E0601043234A10439A
:200860000860704738B5204B1B68C3F30223C3F10704052C28BF04241D1D072D34BF002320
:20088000DB1E012505FA04F4641E2140994005FA03F35B1E1A401143BDE83440C8E7BFF3F0
:2008A0004F8F1148124A016801F4E06111430160BFF34F8F00BFFDE710B5401EB0F1807F5B
:2008C00001D3012010BD0B4C60600F214FF0FF30FFF7AEFF0020A06007202060002010BD4A
:2008E00000E400E018ED00E00CED00E00000FA050400FA0510E000E02DE9F84FDFF8084226
:2009000006462078002701288A469046994608BF022037D0012020704CF2503000F045F892
:20092000834660BB6060DFF8E4512868400506D5286820F4806028600220207700E0277714
:2009400036B942464B46504600F0C4F801270BE0012E18BF022E07D14146504600F0C4F863
:20096000022E08BF4FF480274CF2503000F01DF8834617B16869B843686100F066F900203E
:2009800020705846BDE8F28F6248C168002903D561490160614905E00120704760480168AC
:2009A00041F0004101600020704770B50546FFF71DFF2E18564C2068C00308D515F1010FE5
:2009C000F9D0FFF713FFB042F5D3032070BD206880071DD4206800071AD42068C00617D486
:2009E0002068800614D42068400611D4206800060ED42068C0050BD42068800508D4206841
:200A0000400405D4206800045CBFA068002803D500F009F8012070BD2068C00744BF012058
:200A20002060002070BD3A4937480A68920703D5426842F0010242600A68120703D5426876
:200A400042F0020242600A68D20603D5426842F0040242600A68920603D5426842F0080250
:200A600042600A68520603D5426842F0100242600A68120603D5426842F0200242600A682E
:200A8000D20503D5426842F0400242600A68920503D5426842F0800242600A68520403D566
:200AA000426842F4807242600A68120403D5426842F4007242608A68002A03D5426842F49A
:200AC00080624260886840F0004088604CF2FA300860704710B512490C6844F001040C608A
:200AE00040F8042B036010BD0D4A136843F48023136072B6402251F8043B40F8043B521E47
:200B0000F9D162B6704700000840002000200240102002400820024023016745AB89EFCDD6
:200B2000142002402DE9F047DFF87061044630780128894608BF02205BD0012030704CF24D
:200B4000503A5046FFF731FF002880464ED17060DFF84C512868800528680DD520F40070F3
:200B600028602868400505D5286820F48060286003200AE0012008E0400505D5286820F459
:200B800080602860022000E000203077206801280CD1606800F02FF85046FFF706FF804660
:200BA0006869DFF80011084068611DE04FF0FF30C9F80000A76800E07F1CA068E168081844
:200BC000874211D26168384600F027F85046FFF7ECFE80466869DFF8D0100840B8F1000F4F
:200BE0006861E9D0C9F8007000F02FF8002030704046BDE8F087C2072C4903D50A6842F00F
:200C000004020A60800703D5086840F400400860086840F4803008607047244AC90711688F
:200C20004CBF21F4006141F400611160116821F4FF6141EAC0001060106840F002001060C9
:200C4000106840F4803010607047144914480A7F012A1CBF0A7F032A0BD1026842F4006235
:200C60000260026822F400620260026842F4007202600A7F022A1CBF0A7F032A0BD10268CE
:200C800042F480520260026822F480520260026842F4806202600020087770470840002094
:200CA00000200240FB7FFFFF05F8FFFF1420024030B54C484C499BB0006800900098884236
:200CC0006CD100F09BF810200A9001201090602012900020119002201490012015901690B4
:200CE0002820179002201A9007201890042019900AA8FFF749FA00B1FEE70F200590042133
:200D000003200690002007900890099005A8FFF71CFC00B1FEE70090019001200290334C8E
:200D2000204600F044F80390F8200490FFF72CFE694601A8FFF7F6FE00B1FEE7FFF72EFEC8
:200D4000FFF722FE00252A4825F0070108446119D0E900230020FFF7CFFD00B1FEE7083572
:200D6000B5F5F82FEFDBFFF719FE00200090FFF70BFE00200190022002901A4800F017F856
:200D8000039069460120049001A8FFF7CBFE00B1FEE7FFF703FEFFF782FD05E01348416809
:200DA000006880F30888884700201BB030BD114909884FF6FF7291420FBF0A4B0E4B03EA44
:200DC000412303F10063984207D391420EBF4FF40021094A02EA4121401A00F17840C00A32
:200DE0007047000000000808EFBEADDE0040000808000808E075FF1F00FE1F0080B50320AC
:200E0000FFF723FD0F20FFF7F7FC00F002F8002002BD70470E480F4A016841F47001016005
:200E20000D48016841F001010160002181600168114001604FF48051C160016821F48021EF
:200E40000160002181614FF0006004490860704788ED00E0FFFFF6EA0010024008ED00E0C9
:200E600000000000000000000102030406070809A0860100400D0300801A060000350C00F2
:200E800040420F0080841E0000093D0000127A000024F40000366E010048E801006CDC0295
:200EA00030B5016842688468014401EB5203D20748BF4C44994201D10C3030BD11F9012B4C
:200EC00011F8015B002A04F8015B02D5521CF9D1F0E7521EF4D5EDE710B50749794418311D
:200EE000064C7C44163404E00A68081D114488470146A142F8D110BD2C00000038000000D3
:200F00004EF68851CEF20001086840F470000860BFF34F8FBFF36F8F4FF00070E1EE100A9F
:200F2000704700007DFFFFFFD40100000C0000000040002000F00BF8002801D0FFF7CCFF92
:200F40000020AFF30080FFF7B3FE00F002F80120704700F001B800000746384600F002F888
:200F6000FBE7000080B5AFF30080024A11001820ABBEFBE7260002007047FEE7FEE7FEE7CA
:200F8000FEE770477047704700F000B802480168491C0160704700BF04400020014880473C
:200FA00001480047150E0008AD0F0008AFF30080FFF7A6FFFFF7BEFFFFF7FEBFFFF7FEBFDC
:200FC000FFF7FEBFFFF7FEBFFFF7FEBFFFF7FEBFFFF7FEBFFFF7FEBFFFF7FEBFFFF7FEBF79
:200FE000FFF7FEBFFFF7FEBFFFF7FEBFFFF7FEBFFFF7FEBFFFF7FEBFFFF7FEBFFFF7FEBF59
:20100000FFF7FEBFFFF7FEBFFFF7FEBFFFF7FEBFFFF7FEBFFFF7FEBFFFF7FEBFFFF7FEBF38
:20102000FFF7FEBFFFF7FEBFFFF7FEBFFFF7FEBFFFF7FEBFFFF7FEBFFFF7FEBFFFF7FEBF18
:20104000FFF7FEBFFFF7FEBFFFF7FEBFFFF7FEBFFFF7FEBFFFF7FEBFFFF7FEBFFFF7FEBFF8
:20106000FFF7FEBFFFF7FEBFFFF7FEBFFFF7FEBFFFF7FEBFFFF7FEBFFFF7FEBFFFF7FEBFD8
:20108000FFF7FEBFFFF7FEBFFFF7FEBFFFF7FEBFFFF7FEBFFFF7FEBFFFF7FEBFFFF7FEBFB8
:2010A000FFF7FEBFFFF7FEBFFFF7FEBFFFF7FEBFFFF7FEBFFFF7FEBFFFF7FEBFFFF7FEBF98
:2010C000FFF7FEBFFFF7FEBFFFF7FEBFFFF7FEBFFFF7FEBFFFF7FEBFFFF7FEBFFFF7FEBF78
:2010E000FFF7FEBFFFF7FEBFFFF7FEBFFFF7FEBFFFF7FEBFFFF7FEBFFFF7FEBF0200093DC3
:20110000DB00000000000000000000000000000000000000000000000000000000000000F4
:201120000000000000000000000000000000000000000000000000000000000000000000AF
:2011400000000000000000000000000000000000000000000000000000000000000000008F
:2011600000000000000000000000000000000000000000000000000000000000000000006F
:2011800000000000000000000000000000000000000000000000000000000000000000004F
:020000040800F2
:203F000000010100EFBEADDE0000080800C0070000400008FFFFFFFFFFFFFFFFFFFFFFFF54
:203F2000FFFFFFFFFFFFFFFFFFFFFFFFFFFFFFFFFFFFFFFFFFFFFFFFFFFFFFFFFFFFFFFFA1
:203F4000FFFFFFFFFFFFFFFFFFFFFFFFFFFFFFFFFFFFFFFFFFFFFFFFFFFFFFFFFFFFFFFF81
:203F6000FFFFFFFFFFFFFFFFFFFFFFFFFFFFFFFFFFFFFFFFFFFFFFFFFFFFFFFFFFFFFFFF61
:203F8000FFFFFFFFFFFFFFFFFFFFFFFFFFFFFFFFFFFFFFFFFFFFFFFFFFFFFFFFFFFFFFFF41
:203FA000FFFFFFFFFFFFFFFFFFFFFFFFFFFFFFFFFFFFFFFFFFFFFFFFFFFFFFFFFFFFFFFF21
:203FC000FFFFFFFFFFFFFFFFFFFFFFFFFFFFFFFFFFFFFFFFFFFFFFFFFFFFFFFFFFFFFFFF01
:203FE000FFFFFFFFFFFFFFFFFFFFFFFFFFFFFFFFFFFFFFFFFFFFFFFFFFFFFFFFFFFFFFFFE1
:020000040800F2
:20400000405E012009420008D95C0208ABE90108E9560208617701087B780208000000008B
:204020000000000000000000000000000B670208EF8E010800000000E35C0208A56E020818
:204040002342000823420008234200082342000823420008234200087D9801082342000847
:204060008B9801089B980108AB980108234200082342000823420008A587010823420008A3
:204080002342000823420008234200082342000823420008234200082342000823420008B8
:2040A000234200082342000823420008F56E02082342000823420008016F0208234200088B
:2040C000234200082342000823420008234200082342000823420008234200082342000878
:2040E0008398010823420008234200082342000823420008234200082342000823420008A1
:2041000023420008234200080D6F020823420008234200082342000823420008234200081E
:20412000234200082342000823420008234200082342000823420008234200082342000817
:204140002342000823420008234200082342000823420008234200082342000823420008F7
:20416000234200082342000823420008234200082342000823420008234200080000000044
:2041800023420008234200084B1C012B98BF70472DE9F003911C9B08B1F80480B1F80290E3
:2041A0000A8831F802CC8044814402448444D9F80070D8F800601568DCF80040C9F80060BC
:2041C000C8F80070CCF800501460D9F80470D8F804605568DCF80440C9F80460C8F8047080
:2041E000CCF80450546008315B1ED5D1BDE8F0037047DFF810D010F0A9F800000048004765
:2042000099BC0208405E01200648804706480047FEE7FEE7FEE7FEE7FEE7FEE7FEE7FEE7AE
:20422000FEE7FEE7A96E0208F34100082DE9F00F13EE906ADDE90EC0DDE90C12DDE90A936C
:20424000DDE90854FE4FBE426CDD16EE106AB6F1804F1CDC14EE906AFA4FB7420ADBB5EEF4
:20426000C06AF1EE10FA5DD917EE906AF64FBE4258DC0CE014EE906AF44FBE4207DD13EE6D
:20428000906AF34FB742A4BFF24EB4424ADC12EE90AADFF8C4B3F14EF14FDFF8C883D345E9
:2042A00065DB11EE109ADFF8C0A3D1454ADCEF4860453BDB15EE100AED4988420BDCED4874
:2042C000844580F0668117EE900AEB49884240F3608100F090B9E9488342DCBF11EE900AAA
:2042E000E74900F3568111EE101AE64A06208A42C0F2248414EE901AE34A8A42BCBFBDE85A
:20430000F00F704715EE101AE04A8A42BCBFBDE8F00F704712EE901ADD4A8A42BCBFBDE831
:20432000F00F70470120BDE8F00F7047D948884280F22F81D8489042A4BFD8488842D2DA53
:2043400000F027B911EE901AD54A914240F3218113EE101AD34A9142C5DDD3498842C2D3E5
:2043600011EE100AD1498842BDDD00F044B914EE90AADFF83CB3D3456FDB17EE10AADFF8BF
:2043800034B3DA45AFDD11EE10AADFF82CB3DA4537DC13EE109ADFF824A3CA450DDB10EEAC
:2043A000100AC749884200F32681C64884456FD3C548824240F31F8195E7DFF810C38C45BB
:2043C00013DB13EE101AC24A8A426EDBC14988426BD310EE900AC049814266DABF4885421F
:2043E000DCBFBF48984260DAD3E0BE4890425CDA10EE900ABC498142BCBF13EE100ABB494C
:20440000C7E011EE10AADFF8E8B2DA4541DCB949914208DB10EE100AB749884245DCB748D5
:20442000484535DA5FE710EE901ADFF8D4C28C4514DB14EE900AB349884205DC16EE900AE4
:20444000B149814224DA4EE7B04883422DDD10EE100AAF49884228DD45E72EE0AD498142D3
:2044600016DA11EE100AAC498142FFF63CAF11EE100AAA4988420BDD10EE100AA84988420A
:2044800006DDA8488542DCBFA74882427FF72BAF7FE0A64A904209D3A548814205DD10EE57
:2044A000900AA449884200DD73E05DE0A24883426FDCA24884456CD215E711EE109A4E451B
:2044C00019DB13EE100A9E49884203DC9D4890425FDA90E012EE100AB84245DC11EE100A8F
:2044E000404556DC13EE100A9749814251DA9748984239DA4DE013EE109ADFF854A2CA459C
:2045000017DB12EE901A934A91420BDC10EE900A914981423DDB17EE900A904988427FF763
:20452000E2AE68E08E49884233D38E48834230DC61E016EE903ADFF83092994515DB10EEE1
:20454000902A8A4B934256DA11EE102A884B9A42DCBF884A8A421CDA15EE101A864A8A42E7
:2045600017DB8649884214D245E0854B834209DB84488445C4BF844882423CDD83488142DD
:2045800007DD38E0824A8242A4BF11EE100A81492BDB11EE101A804A0520914200F3B6822D
:2045A00010EE101A7D4A8A4210EE901AC0F28B827B4A914200F3768210EE101A794A8A429F
:2045C000A4BFBDE8F00F704714EE101A764A8A42BCBFBDE8F00F704711EE901A734A914256
:2045E000DCBFBDE8F00F7047ADE171488842BCBF70488842CDDB17EE101A6F4A6F4891429D
:2046000019DC14EE901A6E4A8A4215DB11EE101A6C4A914211DC13EE101A6B4A91420DDC4A
:2046200010EE101A694A914208DC16EE901A684A9142AEDCCEE055E1DAE0D2E051E10000A9
:204640000723423F2CB7B43BFEB4213EDC2A583EA2118D41A131273F5167614096418D3E7C
:2046600067546B413CFA2F3E9F3D8F3E3E5A8C3F565C3E426DFE5BBFE6AF903D4CA4BC3E21
:20468000A27D803FD36A703F98F8233B9B293E42280A343E87524B3E9E97CA3DD4B7083F0A
:2046A000C30F6E3F0F485841D9066EBBDBC05D3F973C1C40833227402C7D683E1058FA4010
:2046C0005AD41B3FA2EE7BBF64ADA13C8045FE3E73D754412861CEBE79AE0B3FE92B1541CA
:2046E000DC7E793CF06BA43DAE2E4F3F56DCA24231946F3FBA32A83CBFF31B3FBF7EA83D7E
:20470000F06EE53DC05B143FA4A77C3FA9BE433EA1BD0E3F3F8F093FBEDB203F122ECC3EBA
:20472000395ED13E605A1341BF63683E6F1203BA268CC63DC03FC53E1FD9DC3EA0A7B1BE40
:20474000F0C1764005DC9B3EC20A724186ADE93EBD42E541CFF0E641A436313FF626863D2B
:20476000EE273BBF5930D13DBB9C763F3C85EC3E49F6F83E5D4F943DCD49C34234BC83BF5D
:204780007A1C863C70CD973F1058493EFE277F3E92961A3F3ACFA83E1572713FD4472C3FB0
:2047A0003CDD793F44A31B3F0D5344428C30713FD8465C3E20D4E53E16C866440000884175
:2047C0008DD31B4054901F3EC0D43A412F52483F946C793F15EE101AF84A91423FF7D9AE0F
:2047E0008AE010EE101AF64A91427FF7D2AE83E012EE101AF34A8A426ADB11EE101AB14227
:204800000FDC12EE101A8F4276DB11EE101A8845FFF6BFAE13EE101AEB4A91427FF7B9AEF9
:204820006AE015EE901A81421EDC10EE901AE74A8A4261DA10EE101AE54A8A425CDB17EE85
:20484000901AE44A91427FF7A4AE11EE101AE24A914203DCE149A1424EDA9AE616EE901A7B
:20486000DF4A914248DD94E612EE901ADD4A914219DC15EE901ADC4A8A423DDA17EE901A9F
:20488000DA4A8A4210EE901A09DBD94A9142C4BFD8498C4230DDBDE8F00F04207047D64A88
:2048A0008A4229DAF7E712EE101AD44A91427FF770AE11EE101AD24A914203DCD149A142A8
:2048C0001ADA66E610EE901ACF4A914214DD60E617EE901ACD4A8A42A4BF15EE900ACC4926
:2048E000D9DA09E017EE101ACA4A9142D3DC10EE101AC94A9142CEDC17EE101AC74BC84A4C
:204900008B426EDB12EE101AC64B99426ADC16EE901AC54B8B4266DB14EE901AC34B9942C4
:2049200015DC16EE101A88420DDA14EE900AC049814208DA10EE100ABE498142BCBF15EEFD
:20494000900ABD4925DBBDE8F00F0220704717EE900ABA49884239DC10EE100AB8498142DD
:20496000F1DB15EE900A90421DDC11EE100AB549814212DB10EE100AB3498842E3DD14EE9C
:20498000900AB2498842DEDC17EE900AB0498142D9DABDE8F00F0320704710EE900AAD49E4
:2049A0008142F6DACFE714EE900AAB498842F0DC11EE100AA9498842EBDCA9488442C2DC97
:2049C00013EE100AA7498142E3DBBCE711EE100AA5498842B7DD12EE900AA4498842D8DD3D
:2049E000B1E73FE023E010EE900AA149814213DB15EE900A9F498842C4BF16EE100A9E49F3
:204A0000C7DC10EE900A9D4988429CDC12EE100A9B498142BDDB96E712EE900A994981421E
:204A2000B7DA13EE900A98498142B2DB8BE714EE100A9649884286DD13EE900A944988423D
:204A40000ADC13EE100A93498142A2DA10EE900A914981429DDA76E712EE900A8F498842F5
:204A600097DC70E715EE900A82420BDB10EE900A8B498142FFF667AF12EE900A89498842B5
:204A800087DC60E78848A84283DA10EE900A87498142FFF658AF12EE900A854988423FF7C6
:204AA00078AF50E717EE901A824A9142DCBFBDE8F00F704716EE901A7F4A91427FF743AFA2
:204AC000BDE8F00F70477D4A8A42A4BFBDE8F00F704711EE101A7A4A8A420EDB17EE901AD9
:204AE000784A91427FF72FAF11EE901A764A91427FF729AFBDE8F00F704711EE901A734A82
:204B00008A42BFF620AFBDE8F00F704716EE101A6F4A91423FF717AF16EE901A6D4A9142FC
:204B2000C4BFBDE8F00F704710EE101A6A4A9142C4BFBDE8F00F704705E700BF11EE901AB6
:204B4000664A8A42BCBFBDE8F00F704710EE101A634A91422FDC12EE901A624A8A4215DB3E
:204B600016EE101AB1F1804F7FF7DCAB10EE901A5D4A91427FF7D6AB11EE101A5B4A9142DF
:204B8000DCBFBDE8F00F7047FFF7CCBB10EE901A574A8A4210DB15EE101A564A91427FF78C
:204BA000C1AB11EE101A544A9142DCBFBDE8F00F7047FFF7B7BBB2E0A0E00000869E3642E3
:204BC0007E1C713FFA23CC43DD057241295F903E473A2F3FE23D8F3E9B74FB3E274EBD40DF
:204BE0002BDC423F4249F3420000D841DFC56B3ED8BB873E734B6B4036E9563E3B1B0042FB
:204C000067F2D53EFC60E340C6DE133FC66C013F0000A841350B7F44EB8E193F40E0ED4334
:204C20000000B041FE05D5430CB29F3FA4FDC1413964A141C765303F0000A04198A2B43E02
:204C4000AD896D3FDA1CC73E5C043A3F4A341A42B8C9283E89D2423FA30DF441E468963EFC
:204C600094A14E4043525B4205145A3E2D938D433ACF703F0000B84100002041EA42DC3EA6
:204C8000379C384319ABE14228F0B044CA4E92435CE74C459A2FA0437385373EF38F5B43D9
:204CA0007D91603ED7C92E43F4E15643C6DD883E3257304361A8033E6A13833F52D1C03EBA
:204CC000E5278D3E0F5E2B3E5C3C8A3FDE8E7C3F000010412079833F07D3203E5F95873F01
:204CE000F487163EB457233F2926B73EE657733F2C2E8E3EA4444042FAB87E3F11EE901A9D
:204D0000FE4A8A42A4BFBDE8F00F704710EE101AFB4A8A42BFF606ABBDE8F00F704711EEC8
:204D2000901AF84A91427FF7FDAABDE8F00F70472DE9F04FF44C2DED108BADB004F1F005AB
:204D400004F5827604F58C722078DFEDF08A88BB0023E3702371A3706371B7EE002A85ED18
:204D6000002A85ED012A85ED022A85ED032A85ED042A86ED002A86ED012A86ED022A86ED42
:204D8000032A86ED042A82ED002A82ED012A82ED022A82ED032A82ED042ADD48A3711021D4
:204DA000F0EE681AC0ED011AC0ED021A0830491EF8D1236101202070DFEDD62AE078D64922
:204DC000C0EE221A401CA1FB00314909A1EB810100EB011000F0FF0880EEA22A84F8038034
:204DE000A07881EE220A20B1207900F00F00401C2071CA4861EEA10A00EB8800B8F12F0F44
:204E0000C0ED001AC64842EE020A00EB880080ED002AC44800EB880040EE000A80ED000A49
:204E2000C14800EB8800C0ED000A04BF0120A070A779BF4905EB8700B0EE688AC0ED000A65
:204E4000BA4806EB870A00EB8709781DA1FB00218908494201EB8101084400F0FF0BB54834
:204E600090ED000B51EC100B0FF066F800EE100A05EB8B00B0EE489AD0ED009AAE4800EEB7
:204E8000299A90ED000B51EC100B0FF055F800EE100AA749381DA1FB00218908494201EB11
:204EA0008101084400F0FF0BA24800EE298A90ED020B51EC100B0FF03FF800EE100A05EB8F
:204EC0008B00D0ED009A9C4800EE299A8AED009A90ED020B51EC100B0FF02EF800EE100A3B
:204EE000964800EE298A89ED008A90ED020B51EC100B0FF021F800EE100A06EB8B00D0EDF8
:204F0000000A8F4800EE609A90ED020B51EC100B0FF012F800EE100A8448854900EB8B00C5
:204F2000D0ED000AF81CA1FB00218908494201EB8101084400F0FF0B7E4800EE608A90EDEE
:204F4000040B51EC100B0EF0F7FF00EE100A05EB8B00D0ED009A784800EE299A8AED009A9A
:204F600090ED040B51EC100B0EF0E6FF00EE100A724800EE298A89ED008A90ED040B51EC3E
:204F8000100B0EF0D9FF00EE100A06EB8B00D0ED000A6B4800EE609A90ED040B51EC100B56
:204FA0000EF0CAFF00EE100A6048614900EB8B00D0ED000AB81CA1FB00218908494201EBFA
:204FC0008101084400F0FF0B5A4800EE608A90ED060B51EC100B0EF0AFFF00EE100A05EB05
:204FE0008B0090ED00AA544800EE0A9A8AED009A90ED060B51EC100B0EF09EFF00EE100A37
:205000004E4800EE0A8A89ED008A90ED060B51EC100B0EF091FF00EE100A06EB8B00F0EEA2
:20502000499AD0ED000A464840EE609A90ED060B51EC100B0EF080FF00EE100A3B483C499D
:2050400000EB8B00D0ED000A781CA1FB00218908494201EB810101EB000B364800EE608AEB
:205060000BF0FF0790ED080B51EC100B0EF064FF00EE100A05EB870090ED009A2E4840EEAC
:20508000099ACAED009A90ED080B51EC100B0EF053FF00EE100A294800EE098A89ED008AEA
:2050A00090ED080B51EC100B0EF046FF00EE100A06EB8700D0ED000A214840EE609ACAED36
:2050C000009A90ED080B51EC100B0EF035FF00EE100A164800EB8700D0ED000A00EE608AA5
:2050E00089ED008A94ED0C0B51EC100B0EF024FF00EE100A134F20EE290A25E0D9CF863F82
:20510000D845D13CE4BD7E3F5802001000000000F8220010CDCC1CC1ABAAAAAA7C1E0010AA
:205120003C1F0010FC1F0010BC20001070030010CDCCCCCCA8020010F8020010D002001093
:20514000200300107C21001007EB880080ED000A94ED100B51EC100B0EF0EEFE00EE100A98
:2051600007F1C00000EB880020EE080A80ED000A84F806B02079102840F02483A078002853
:2051800000F02083B0EE680AA7F5407505F5C07303F1C00202F1C001B0EE401AF0EE401A54
:2051A000F0EE40BAB0EE40CAF0EE40CAB0EE40BAF0EE40AAB0EE40AAF0EE409AB0EE409A6F
:2051C000B0EE408AF2EE04FAF0EE40EAB0EE40EAB0EE40DAF0EE40DA05F1C00C01F1C00095
:2051E0005FF0300695ED003ADCED002A93ED002AD2ED000A03EE03BA42EEA2AA02EE02AA42
:2052000040EEA08A33EE011A32EE800A72EE211A70EEABBAF4EEC80AF1EE10FA00F3D88208
:20522000F4EEEF0AF1EE10FAC0F0D682B1EC012A121DF0EC010A1B1D2D1D42EE02EA32EE06
:205240000DDA00EEA0EA70EEADDA761E0CF1040CC8D19FEDFEFAC1EE0F0ACDED120AC0EE00
:205260000F0ACDED110AC1EE8F0ACDED100ADDED120A20EEA00A8DED0E0ADDED100A00EE22
:20528000A00AF1EEC00AF4EE600AF1EE10FA03D023F0FAFDF0EE400A9DED110A80EE201A34
:2052A00011EE100A0EF004FE41EC100B22F0ECFE51EC100B0EF040FE00EE100A8DED230A4E
:2052C0009DED120AF0EEC00ACDED1F0A9DED101A80EE810A10EE100A0EF0EAFD41EC100BAB
:2052E00022F0D2FE51EC100B0EF026FE00EE100AD74E8DED220A8BEE8F0A0DF128080DF141
:2053000060098DED0F0A21699DED120A06EB810080ED000A9DED110A80ED080A9DED100AB0
:2053200080ED100A9DED0F0A80ED180A481CC11700EB517121F00701401A0025C4F8100067
:2053400006EB451AAAF1040000234FF0040C08EB850209EB8501DAED000A23E013B392EDDF
:20536000001A90ED010AB4EEC01AF1EE10FAC8BFB0EE410A82ED000A91ED001A90ED010A1D
:20538000B4EEC01AF1EE10FAD8BFB0EE410A81ED000AB3F1FF3F04BFC2ED000AC1ED000A9A
:2053A0001ED003E0C2ED000AC1ED000A92ED001A90ED020AB4EEC01AF1EE10FAC8BFB0EEFF
:2053C000410A82ED000A91ED000A90ED021AB4EEC10AF1EE10FAC8BFB0EE410A81ED000AAA
:2053E00008309B1CACF1010C1CF0FF0CB6D1681CC5B2042DA4D39DED0A0ADDED180A1FEE3C
:20540000900A30EE600A8DED240A9DED0B0ADDED190A30EE600A8DED250A9DED0C0ADDED9B
:205420001A0A30EE600A8DED270A9DED0D0ADDED1B0A30EE600A8DED280A0EF039FD41ECF0
:20544000100B23F0E4FC8DED1C0B18EE100A0EF02FFD41EC100B23F0DAFCB0EE401AF0EE4C
:20546000601A9DED1C0B51EC110B53EC102B0EF0D7FB0EF061FD9DED0E0ADDED110A8DEE00
:205480000F8A00EEA00ADDED100A824600EEA00A10EE100ACDEE8FBA0EF00AFD41EC100B2E
:2054A00023F0B5FC51EC100B0EF046FD00EE100ADDED120A8AEE8F1A002607F104083546DB
:2054C000644F4FF02F09C0EE80FADDED110AC0EE80DADDED100A80EE80DA9DED1F0A8DEDB4
:2054E000120A9DED110AF0EEC00ACDED110A9DED100AF0EEC00ACDED100ACBEE0F0A9DEDF2
:20550000120A40EE400A94ED030A60EE800ACDED0E0ADDED110A00EEE01ADDED100A21EEFF
:2055200000BA8AEE0F1A00EEE01ADDED0F0A61EE00AA88EE8F1A00EEE01A21EE00AA94ED0B
:20554000120B51EC100B0EF0F7FC94ED0E0B834651EC100B0EF0F0FC4FEA0001D8ED000A37
:2055600000EE101A18ED011A70EEC80A31EE481A70EEC01A00EE101A31EE400A21EE800AF0
:20558000B5EEC00AF1EE10FA3CBF701CC6B200EE101A70EE200A00EE101A30EE010A20EEC7
:2055A000800AB5EEC00AF1EE10FA3CBF701CC6B200EE90BA97ED000A01EE10BA30EE6B0AFA
:2055C00070EE601A57ED010A70EEEB0A30EEC11A21EE811AB5EEC01AF1EE10FA3CBF681CC9
:2055E000C5B201EE10BA31EE001A00EE10BA30EE200A21EE000AB5EEC00AF1EE10FA3CBFD8
:20560000681CC5B23F1D08F10408B9F10109A5D1DFF844904FF0300B09F1C00808F1C0075D
:2056200099ED000A98ED001AD7ED000A2FEE808A20EE000A0DEE818A01EE010A0DEE208A89
:2056400000EEA00A08EE480A08E0000000004042FC220010402200107C1E0010B0EEC00A4E
:2056600010EE100A0EF024FC41EC100B23F0CFFB51EC100B0EF060FC00EE100AF0EEC80A65
:2056800048EE089A00EE009A30EE8CCA7CEE80CA3F1D08F1040809F10409BBF1010BBFD1D2
:2056A000CCEE0F6A94ED030A2746B0EE4E5AF0EE6E4AB0EE684AF0EE4A3AB0EE6A3AF0EE0E
:2056C0004B2AC9EE8F0ACCEE8F7A46EEE60A20EE807AC9EE0F0A47EEE70A20EE800ADDEDBE
:2056E000220ACDED070ADDED230ACDED060ADDED280ACDED050ADDED270ACDED040ADDEDA0
:20570000250ACDED030ADDED240ACDED020ACDF804A08DED000A00EE105A9DED0E2ADDED04
:205720000F1AB8EE406A00EE106A9DED101ADDED110AF8EE405A9DED120AFEF777FD1AEE58
:20574000101A7871B1F1814F17DA9DED120AF94A10EE101A914210DA9DED110AF64A10EE22
:20576000101A914209DA9DED100AF44A10EE101A8A42BCBF0120787120DB052818BF0628C1
:205780001CD19DED230AEE4910EE100A88423CBFB5EEC00AF1EE10FA10D29DED220AE94931
:2057A00010EE100A88423CBFB5EEC00AF1EE10FA04D2BAF17C5FC4BF02217971787900F0E9
:2057C00019F9787160792DB000F077BA00F07BBAB0EE608A24E500BFF0EE60FA26E5DA481D
:2057E000016821F001010160D8480122826081680029FCD1D64901600068D649884202BF36
:20580000D54842707047FEE770B50646D2484078002808BF70BDD14C204622F0A7F93078E1
:20582000A0F14201182938BF203060F307057078A0F14201182938BF203060F30F25B078BA
:20584000A0F14201182938BF203060F317450120EAB2811E732A08BFE17013D00BDC642AD4
:2058600008BFA1710ED0652A08BF20700AD06E2A08BFE07006E0752A08BFA07102D0772A32
:2058800008BF2170C5F30722732A08BF217113D00BDC642A08BFE1710ED0652A08BF607064
:2058A0000AD06E2A08BF207106E0752A08BFE07102D0772A08BF6170C5F30742732A04BF15
:2058C000617170BD0BDC642A04BF217270BD652A04BFA07070BD6E2A08BF607170BD752A46
:2058E00004BF207270BD772A08BFA17070BD10B50C4699494978002908BF10BDD0ED000A42
:205900009FED970A20EE801AD0ED010A20EE802AD0ED020A914860EE801A90F9001000EE21
:20592000101A90F90110B8EEC00A00EE901A90F9021020EE010AF8EEE00A00EE820A00EEAF
:20594000901A90F90310F8EEE00A00EEA10A00EE901A90F90410F8EEE00A02EE901A90F970
:20596000051060EE810AF8EEE22A42EE820A02EE901A90F90610F8EEE22A42EEA10A02EE95
:20598000901A90F9071090F90800F8EEE22A22EE811A02EE901AF8EEE22A02EE821A02EE87
:2059A000100AB8EEC22A02EE211AFFF7C1F9207010BD6948417800291CBF0021017070474C
:2059C00065494978002904BF002070472DE9F04164498AB091E8FC118DE8FC11096A089153
:2059E00069460EF057F868460EF04DF80AB0C0B2BDE8F081F0B4DFF860C19CF814104900DB
:205A000001F00202CCF814209CF81810490001F07E03CCF818309CF81C10490001F07E019D
:205A2000CCF81C109CF82040640004F07E04CCF82040012819D0DCF824506D0025F00105A2
:205A400025F04045CCF82450DCF82860760026F0010626F04046CCF8286007281CD2DFE8B9
:205A600000F01B04080C10141800501CCCF8140012E0581CCCF818000EE0481CCCF81C000F
:205A80000AE0601CCCF8200006E0681CCCF8240002E0701CCCF828000220DCF814100022D4
:205AA00011F0010F1CBF521CD2B24908401EF7D105260024022A17D09CF80A20DCF8181075
:205AC000151E4FF0030709D011F0010F1CBF401CC0B24908521EF7D1A84212D19CF80800C5
:205AE0008CF80700022056E09CF8080001218CF807008CF8081002281CBF032804287CD135
:205B000084E0DCF81C3029004FF000000AD000BF13F0010F1CBF401CC0B25B08491EF7D1B2
:205B2000A84221D19CF808008CF807008CF8087092E00000CDCC4C3E3333B33E1F856B3F2C
:205B4000A60A06BFA60A86BE002000E000300240C2A507F4CDB5E8B5580200107C230010D0
:205B6000C3F51C4134D702080021DCF82030002D18BF28460AD000BF13F0010F1CBF491C58
:205B8000C9B25B08401EF7D1A94207D19CF808008CF8070004208CF808005DE01E20DCF818
:205BA0002410002211F0010F1CBF521CD2B24908401EF7D1172A06D99CF808008CF80700F3
:205BC0008CF8086015E01E20DCF82810002200BF11F0010F1CBF521CD2B24908401EF7D164
:205BE000172A46D99CF808008CF8070006208CF808009CF80700012800E00DE018BF0228DA
:205C00001BD0032818BF042817D01EE0CCF81840CCF81C40CCF82040052818BF062833D1F0
:205C2000DCF828004FEA9060CCF82800DCF824004FEA9060CCF8240026E08CF80A60CCF892
:205C40001840CCF81C40CCF820409CF8080002281CBF032804280CD19CF8070001281CBF34
:205C60000528062805D1CCF82840CCF824408CF80A709CF80800012818BF8CF8094003D065
:205C80009CF80800F0BC70479CF80900401CC0B28CF80900782884BF78208CF80900EFD145
:205CA000CCF81840CCF81C40CCF82040CCF82840CCF824408CF80A60E2E7BDEC088BBDEC94
:205CC00008CBFFF783BD30BCBDE8C08F000000002DE9F04FFE4D2DED108B9DB02889C82898
:205CE0009CBF401C2881DFEDFB1AA878FA4980EE219A401CA1FB00210909A1EB011101EB22
:205D0000810100EB4100C0EEA18AC0B2A8700B90687881EE218A58B1E878F049A1FB00217E
:205D200009096FF01802514300EB4100401CE87019EE100A0EF0BCF80B9A02EB4203E84A88
:205D400002EBC304C4E9000118EE900A0EF0B0F8C4E9020118EE100A0EF0AAF829EE090A01
:205D6000C4E9040108EEA80A08EE080A10EE100A0EF09EF8DB4A0B9B02EBC303C3E90001EA
:205D80000B9B952B04BF01236B70D14A0D460446117902F53E7303EBC1000691C0E90045BD
:205DA0009FEDD10B069902F5507C0CEBC100139080ED000B069902F5627404EBC100129088
:205DC00080ED000B069902F5747505EBC100119080ED000B069902F5836202EBC100109039
:205DE00080ED000B069902F1480000EBC1010F9181ED000B09210E910699002600EBC10B46
:205E0000483800EBC10A483800EBC109483800EBC108483800EBC10700910098F4B2801B46
:205E200000F10901B24880FB01025010A0EBE270404200EBC0000844C5B2AE4800EBC5001C
:205E400090ED008BAC4853EC182B00EBC40090ED000B51EC100B0DF0F1FE97ED001B53EC6B
:205E6000112B0DF03CFE41EC1B0BA44887ED00BB00EBC40053EC182B90ED000B51EC100B30
:205E80000DF0DCFE98ED000B53EC102B0DF027FE41EC1A0B9A4888ED00AB00EBC40053ECBD
:205EA000182B90ED000B51EC100B0DF0C7FE99ED001B53EC112B0DF012FE41EC190B9148AA
:205EC00089ED009B00EBC40053EC182B90ED000B51EC100B0DF0B2FE9AED001B53EC112BD6
:205EE0000DF0FDFD41EC1C0B87488AED00CB00EBC40053EC182B90ED000B51EC100B0DF038
:205F00009DFE9BED001B53EC112B0DF0E8FD41EC180B002E8BED008B6DDD7C4800EBC500A7
:205F200090ED000B7A4853EC102B00EBC40090ED001B51EC110B0DF081FE53EC1B2B0DF0FF
:205F400072FEC7E90001734800EBC50090ED000B714853EC102B00EBC40090ED001B51EC76
:205F6000110B0DF06BFE53EC1A2B0DF05CFEC8E900016A4800EBC50090ED001B684853EC29
:205F8000112B00EBC40090ED000B51EC100B0DF055FE53EC192B0DF046FEC9E900016148C6
:205FA00000EBC50090ED000B5F4853EC102B00EBC40090ED001B51EC110B0DF03FFE53EC6F
:205FC0001C2B0DF030FECAE90001584800EBC50090ED001B564853EC112B00EBC40090ED6E
:205FE000000B51EC100B0DF029FE53EC182B0DF01AFECBE900010E9806F10106401E10F0CC
:020000040800F2
:20600000FF000E907FF409AF1398DFF82891DFF8C08090ED000B0B9800EB800009EBC0001C
:2060200080ED000B129991ED000B80ED020B119991ED000B80ED040B109991ED000B80EDEC
:20604000060B0F9991ED000B294980ED080B0698401CA1FB00214908494201EBC10108447F
:2060600088F8040098F80300322840F0158398F80100002800F0108300279FED2FAADFF848
:2060800060B0F2EE04FAF0EE4AEAB0EE4AEAB0EE4AFAF0EE4A9AB0EE4A9AF0EE4AAAB0EE98
:2060A0004ABAF0EE4ABAB0EE4ADAF0EE4ADA3E463D4609F5165A00BF09EBC70494ED000BB7
:2060C00053EC102B51EC100B0DF0B8FD36E0000088030010CDCC1CC1B5814E1B1F85EB5196
:2060E000F83A0010084900100000000000000000398EE33880060010B0030010400400106E
:20610000D004001060050010F0050010C8060010F803001010070010880400105807001006
:2061200018050010A0070010A8050010E807001038060010882300100000000041EC180B66
:2061400019EE900A0DF0B4FE53EC182B0DF0C7FC0DF0F2FE94ED020B09EE900A53EC102B27
:2061600051EC100B0DF06AFD41EC180B19EE100A0DF09EFE53EC182B0DF0B1FC0DF0DCFE56
:2061800094ED040B09EE100A53EC102B51EC100B0DF054FD41EC180B1AEE100A0DF088FE49
:2061A00053EC182B0DF09BFC0DF0C6FE94ED060B0AEE100A53EC102B51EC100B0DF03EFD5A
:2061C00041EC180B1AEE900A0DF072FE53EC182B0DF085FC0DF0B0FE94ED080B0AEE900A8F
:2061E00053EC102B51EC100B0DF028FD41EC180B1BEE100A0DF05CFE53EC182B0DF06FFCF7
:206200000DF09AFE0BEE100A1BEE900A0DF050FE0BEBC60494ED001B53EC112B0DF05FFCB9
:206220000DF08AFE0BEE900A1DEE100A0DF040FE94ED021B53EC112B0DF051FC0DF07CFE0C
:206240000DEE100A1DEE900A0DF032FE94ED041B53EC112B0DF043FC0DF06EFE0DEE900A02
:206260001EEE900A0DF024FE0AEBC50494ED008B53EC182B0DF033FC0DF05EFE0EEE900AF2
:2062800053EC182B51EC180B0DF0D8FC41EC1C0B1EEE100A0DF00CFE53EC1C2B0DF01FFC2C
:2062A0000DF04AFE0EEE100A1FEE100A0DF000FE53EC182B0DF010FE07D294ED000B51EC32
:2062C000100B0DF039FE0FEE100A1FEE900A0DF0EFFD94ED001B53EC112B0DF015FE07D2C8
:2062E00094ED000B51EC100B0DF026FE0FEE900A6D1CF61C7F1D962DFFF6DEAEB5EEC09A8A
:20630000F1EE10FA16D0B0EE490AC9EE800ACDED0A0AC0EE000ACDED0B0ACAEE000ACDEDAB
:206320000C0ACAEE800ACDED0D0ACBEE000ACDED0E0A0CE00AA81FED800A02218DED0A0ABA
:2063400080ED010A80ED020A0830491EF8D19FEDFC0ACBEE801AB0EE4D0AF0EE61BADFED45
:20636000F80A80EE20DADFEDF60A8DEEA00AF0EE40DACBEEAD0A10EE900A0DF099FD41EC02
:20638000100B21F081FE9FEDF0CB51EC100B53EC1C2B0DF053FC0DF0CFFD2DEEAD0A08EE50
:2063A000100A8DED088A0BEEAB0A10EE100A0DF07FFD41EC100B22F02AFDB0EE408AF0EEB1
:2063C000608A1DEE100A0DF073FD53EC182B0DF0AAFC41EC100B21F057FE53EC1C2B51ECAB
:2063E000100B0DF02BFC0DF0A7FD7FEE6F0A2EEEAE1A9FEDD30AC1EE001A3EEE610A9FED9E
:20640000D41A08EE900A10EE900A80EE015AD1499DED0A2ADDED0C2ADDED0D4A9DED0E4AC2
:206420009DED088ACC4CCD4DCD4ECE4FDFF83893DFF838A3DFF838B3B0EE691AF0EE493A3E
:20644000B0EE4A7AF0EE6A5AF0EE4B7AF0EE6B1AF0EE4D6AB0EE6D0A88423ADC10EE900A10
:20646000C449814211DBB0EEC80A10EE100A2044A84208D218EE900ABF49884203D218EE63
:20648000900AB0424CDB012053E0B0EEC80A10EE101ABA4A0020914207DA18EE901AB942DA
:2064A00003D218EE901A49452BDB10EE101A2144A9423CBF18EE901A514503D218EE901A85
:2064C000B1422DDBB0EEE80A10EE101A594530DD2EE0B0EE486AB0EE683A00F015FA0D288C
:2064E00027D1B0EEC80A10EE101AA44A0020914209DA18EE901AB94205D218EE901A494588
:2065000001DA022015E010EE101A2144A9423CBF18EE901A514505D218EE901AB14201DA7B
:20652000032006E0B0EEE80A10EE101A594500DD0420002488F80500052818BF062805D14A
:20654000B8F80800C82838BF88F8054098F8055098F80C00400000F07E07C8F80C7098F8D5
:206560001000400000F07E06C8F8106098F81400400000F07E0CC8F814C098F8180040004D
:2065800000F07E03C8F8183098F81C00400000F07E02C8F81C2098F82000400000F07E01CB
:2065A000C8F8201098F82400400000F07E00C8F82400082D21D2DFE805F02004080C111563
:2065C000191D781CC8F80C0017E0701CC8F8100013E00CF10100C8F814000EE0581CC8F8EB
:2065E00018000AE0501CC8F81C0006E0481CC8F8200002E0401CC8F824000521D8F80C0003
:2066000000F0EDFB052804BF012088F806000521D8F8100000F0E3FB052804BF022088F8A5
:2066200006000521D8F8140000F0D9FB052804BF032088F806000521D8F8180000F0CFFB25
:20664000052804BF042088F806000521D8F81C0000F0C5FB052804BF052088F8060005211D
:20666000D8F8200000F0BBFB052804BF062088F806000521D8F8240000F0B1FB052804BF42
:20668000072088F80600002D08BF88F8064098F8060088F8050000BF98F805001DB000F067
:2066A000DBBB00F0DFBB3648016821F00101016034480122826081680029FCD13249016023
:2066C00000683249884202BF314802707047FEE770B505462E480078002808BF70BD092121
:2066E0002C480DF0C5F92878A0F14201182938BF203060F307046878A0F14201182938BF25
:20670000203060F30F24A878A0F14201182938BF203060F317440121E3B21E488A1E732B16
:2067200008BFC2703FD037DC642B08BF82713AD0652B08BF017036D06E2B08BFC17032E07A
:206740000000164300000000F5C1631ADCA54C400000154334D6763FFFFFB7BDFFFF6B00AE
:206760000000A04000009CC200000C4200005CC200005C420AD7233D000070C200003442E8
:20678000002000E000300240C2A507F4CDB5E8B588030010B84D0010752B08BF817102D02B
:2067A000772B08BF0270C4F30723732B08BF027113D00BDC642B08BFC2710ED0652B08BFBD
:2067C00041700AD06E2B08BF017106E0752B08BFC17102D0772B08BF4270C4F30743732B51
:2067E00004BF427170BD0BDC642B04BF027270BD652B04BF817070BD6E2B08BF417170BD6C
:20680000752B04BF017270BD772B08BF827070BD10B50C46F8490978002908BF10BDD0ED9A
:20682000000A9FEDF60A20EE801AD0ED010A20EE802AD0ED020AF24860EE801A90F9001016
:2068400000EE101A90F90110B8EEC00A00EE901A90F9021020EE010AF8EEE00A00EE820A80
:2068600000EE901A90F90310F8EEE00A00EEA10A00EE901A90F90410F8EEE00A02EE901ADC
:2068800090F9051060EE810AF8EEE22A42EE820A02EE901A90F90610F8EEE22A42EEA10ACD
:2068A00002EE901A90F9071090F90800F8EEE22A22EE811A02EE901AF8EEE22A02EE821A58
:2068C00002EE100AB8EEC22A02EE211AFFF700FA207010BDC8490978002904BF002070474F
:2068E0002DE9F041C7498AB091E8FC118DE8FC11096A089169460DF0CDF868460DF0C3F81C
:206900000AB0C0B2BDE8F08110EE100ABE49884201D30D20704710EE900ABC49884277DCDA
:2069200011EE100ABA49814274DB11EE900AB94988420DD312EE100AB749884204DB10EE23
:20694000900AB649814201DC072070470620704712EE900AB249884213EE100A4ADCB149A9
:2069600088420AD913EE900AAF498842ECDA12EE100AAE498142E7DBCBE714EE100AAC49EE
:2069800088420FDA14EE900AAA498142C1DA15EE100AA9498842BCDB15EE900AA749884290
:2069A000D2DAB6E710EE900AA549884205DA12EE100AA4498842C9DAABE713EE100AA24953
:2069C000884206D916EE100AA0498842A1DD0520704716EE900A9E49884205DC16EE100A95
:2069E0009C498142F3DBAFE715EE900A9A498142EDDC8EE799498842E9D910EE900A984923
:206A0000884286DB16EE100A96498842DFDC80E73CE0FFE713EE100A9349884205D314EEC5
:206A2000100A924988428FDD73E715EE900A9049884213EE100A14DA8E4988420BDA11EE03
:206A4000100A8D49814281DA17EE100A8B498142BFF67CAF78E713EE100A89498842B6DAEC
:206A600074E78849884205DA13EE100A86498842ADD269E711EE900A84498842A7D911EE0F
:206A8000100A83498842BFF661AF5DE711EE900A8049884229D315EE900A7F4988421DDCED
:206AA00016EE900A7D4981427FF750AF11EE100A7B4988420BDC12EE900A7A4981423FF756
:206AC00043AF14EE900A7849884280DB3CE711EE100A764988423FF77AAF37E717EE100AE1
:206AE000734988423FF773AF30E710EE100A7149884212EE100A7CDC6F49814246DD13EEF4
:206B0000900A6E4988420CDC11EE900A6C4988423FF61AAF14EE900A6A498842FFF657AF48
:206B200012E717EE100A6849814228DD11EE900A664988423FF6EDAE12EE900A64498842D1
:206B400016DC16EE900A634988423CBF15EE900A6149FFF4F9AE16EE100A604988423FF78C
:206B6000D8AE11EE900A5E498842FFF4EDAED0E615EE900A5B4981423FF729AFE4E615EE62
:206B8000900A594981423FF722AFDDE613EE100A564981422EDD11EE900A554981427FF734
:206BA000D3AE12EE900A5349884224DC13EE900A51498842C4BF12EE900A50493FF7C4AEF7
:206BC00011EE900A4E4988423FF7BEAE10EE100A4C498842BFF6B8AE16EE100A4A4988420C
:206BE000FFF4F5AE16EE900A48498142FFF4EFAEAAE6E9E0B1E08BE088030010C3F51C4178
:206C0000B84D001058D70208AF964FBF4CE06C40C1710E405C8F3ABF707B623E0F7E0E4031
:206C200038848A3D66B5A8C2A8B8F641FDF41F3C0DE4193D5B41533E42608D3EDFD3C040D6
:206C400098FB244088A01A3E69209AC23263694173655C3F41342D4278F1EC3F704C95C29B
:206C6000BC783A40C50D12411A098FC203EB383DC39EE43FAE7A84424AC18B4207971F4023
:206C80001F808A42781A3D41014DC1C10EDCE9BEFC2A8A4043FF30BF7397E5412FDEBF3EBD
:206CA000B1542E4123DDBF3ED600653D652D1242C16BB241F7AC833E14419C3C38370142A3
:206CC0000CB29DBEDEAF723E795CF74047CA56BE5320733DE1ED91BE9C6F8A3F7936264202
:206CE0009AB0FDBC68978540884E874106A87F41D8BA443F2288733D1C6F044233FC673DAE
:206D0000520A0A3E0C3E5D3E0BFAA8C20C057CBF17EE100A3F49884206DC10EE100A3E493D
:206D20008842BFF454AE0FE616EE100A3B4981423FF74DAE17EE900A3949814206DD12EE82
:206D4000900A384981427FF742AEFDE513EE900A35498142FFF63BAEF6E512EE100A3349E2
:206D6000814218DB12EE900A314981427FF72FAE14EE900A2F4981423FF729AE11EE900AB6
:206D80002D4988423FF723AE14EE100A2B498842BFF61DAED8E513EE900A29498142FFF650
:206DA00016AE11EE900A27498842FFF610AE13EE100A25498842FFF60AAE16EE100A2349FF
:206DC00088427FF604AEBFE5214988427FF7A1AD16EE900A1F4988423FF7F9ADB4E501469A
:206DE000002011F0010F18BF0120490811F0010F18BF401C490811F0010F18BF401C4908EF
:206E000011F0010F18BF401C490811F0010F18BF401C704703B2873E7E5398BD9C039C42C5
:206E2000AB965C3FA0A7313EC3B71A40DEAA6B3D09C3C03DB1359B3DBBB6273EE8A5C23DD3
:206E40004FE703411973D73D31809642991329C24A5F883C82A97A3FBDEC088BBDEC08CBEF
:206E6000FFF71FBC30BCBDE8C08F00000000000010B483B04FF0010CADF800C09DF8002004
:206E800000216FF00043012A19BF4FF0FF32CDE90032FD4ACDE900129DED000BFB4A82ED7C
:206EA0001E0BADF800C09DF80040012C08BFF84B5364E4B2F74BADF800C0012C14BFCDE98E
:206EC0000031CDE900139DED000B4FF0FF4382ED1A0BD363ADF800C09DF800C0EE4BBCF138
:206EE000010F14BFCDE90031CDE900139DED000BEA4B82ED1C0B136480F8CE1880F8CD186D
:206F000080F8CC1803B010BC70472DE9F0410D462DED048BB7EE009A044690ED000AD0EDCF
:206F2000040A30EE090A30EE600AD0ED080A30EE608ADFEDDB9AB5EEC08AF1EE10FAD8BF05
:206F4000B0EE698A94ED070AD4ED050A30EE600AB5EEC00AF1EE10FA34BF4FF0FF384FF0B8
:206F6000010894ED020AD4ED060A30EE600AB5EEC00AF1EE10FA34BF4FF0FF37012794EDBB
:206F8000030AD4ED010A30EE600AB5EEC00AF1EE10FA34BF4FF0FF36012618EE100A0CF090
:206FA00087FF41EC100B21F032FF51EC100B0CF0C3FF00EE100AF6EE008A60EE280A00EEC7
:206FC000108AB8EEC00A20EE800A85ED000A94ED000AD4ED040A39EE400A30EE200AD4EDBF
:206FE000080A30EE600AB5EEC00AF1EE10FA04D9B4EE400AF1EE10FA01D0B0EE690A10EE0F
:20700000100A0CF055FF41EC100B21F000FF51EC100B0CF091FF00EE100A60EE280A00EE54
:20702000107AB8EEC00A20EE800A85ED010A94ED000AD4ED040A39EE400A30EE600AD4ED2D
:20704000080A30EE200AB5EEC00AF1EE10FA04D9B4EE400AF1EE10FA01D0B0EE690A10EEEE
:20706000100A0CF025FF41EC100B21F0D0FE51EC100B0CF061FF00EE100A60EE280A00EE85
:20708000106AB8EEC00A20EE800A85ED020A94ED000AD4ED040A30EE090A30EE200AD4ED5C
:2070A000080A30EE200AB5EEC00AF1EE10FA07D9B4EE400AF1EE10FA08BFB0EE408A01D06B
:2070C000B0EE698A18EE100A0CF0F2FE41EC100B21F09DFE51EC100B0CF02EFF00EE100A96
:2070E00020EE280A85ED030ABDEC048BBDE8F08110B504462DED088BB0EEC09AF0EEE08A87
:20710000B0EEC18A9FED68ABB4EEE89AF1EE10FAC4BFB4EEC89AF1EE10FA5ADDB5EEC00AC6
:2071200018EE900AF1EE10FA2ADD0CF0C1FE53EC1A2B0CF083FD41EC1B0B19EE100A0CF094
:20714000B7FE53EC1B2B0CF0DFFE80F0118118EE100A0CF0ADFE53EC1A2B0CF06FFD41EC3A
:20716000180B19EE100A0CF0A3FE53EC182B0CF0CBFE38BF042080F0FB80BDEC088B10BDD8
:207180000CF096FE53EC1A2B0CF058FD41EC1B0B19EE100A0CF08CFE53EC1B2B0CF0B4FE5D
:2071A0006ED218EE100A0CF083FE53EC1A2B0CF045FD41EC180B19EE100A0CF079FE53EC0D
:2071C000182B0CF0A1FE38BF052059D2BDEC088B10BDF4EEC88AF1EE10FA71DDF5EEC00A69
:2071E00019EE100AF1EE10FA28DD0CF061FE53EC1A2B0CF023FD41EC190B18EE900A0CF098
:2072000057FE53EC192B0CF07FFE39D218EE100A0CF04EFE53EC1A2B0CF010FD41EC190BCC
:2072200018EE900A0CF044FE53EC192B0CF06CFE38BF012024D2BDEC088B10BD0CF038FE3E
:2072400053EC1A2B0CF0FAFC41EC190B18EE900A0CF02EFE53EC192B0CF056FE10D218EEE4
:20726000100A0CF025FE53EC1A2B0CF0E7FC41EC190B18EE900A0CF01BFE53EC192B17E0F2
:2072800076E01DE0000000000000F8FF580600200000C0FF0000F07F0000F0FF000080FF8A
:2072A0000000000000000000000000E051B8F63F0CF02AFE38BF03205AD2BDEC088B10BD3D
:2072C000B5EEC01A18EE900AF1EE10FA28DD0CF0EFFD53EC1A2B0CF0B1FC41EC1B0B18EE35
:2072E000100A0CF0E5FD53EC1B2B0CF00DFE3FD219EE100A0CF0DCFD53EC1A2B0CF09EFCE9
:2073000041EC190B18EE100A0CF0D2FD53EC192B0CF0FAFD38BF00202AD2BDEC088B10BD9F
:207320000CF0C6FD53EC1A2B0CF088FC41EC1B0B18EE100A0CF0BCFD53EC1B2B0CF0E4FD00
:2073400016D219EE100A0CF0B3FD53EC1A2B0CF075FC41EC190B18EE100A0CF0A9FD53EC35
:20736000192B0CF0D1FD3EBF0220BDEC088B10BD2046BDEC088B10BD70B50D462DED0E8B3D
:207380001FED399A90ED000AD0ED018AD0ED029A90ED03AAFA4CD2ED001A92ED012A606A29
:2073A00092ED021A03B3B0EE688AF0EE408AF1EE699AB1EE411AF0EE610AB0EE420AFFF73F
:2073C00097FE6062F0EE00AA9FEDEFBB9FEDF0CB9FEDF10AF14C9FEDF2EA06287CD2DFE8E2
:2073E00000F00D10454A450DB0EE408AF0EE420AB0EE610AFFF77CFE6062E3E795ED009AEC
:207400006FE068EE081A28EEA80A69EEA90A2AEE0A1A31EEC00A30EE600A30EE010A10EEFF
:20742000100A0CF045FD28EE280A41EC1D0B09EE8A0A20EE2A0A10EE100A0CF039FD41EC13
:20744000100BB0EE4D1AF0EE6D1A20F089FF53EC1B2B51EC100B0CF0F1FB53EC1C2B0CF0C8
:20746000DFFB0CF069FD09EE100A3AE0D5ED000A30EE809A35E028EE080A68EEA80A29EE45
:20748000A91A6AEE0A1A30EE600A30EE410A30EE210A10EE100A0CF00BFD28EE280A41ECE2
:2074A0001D0B09EE8A0A20EE2A0A10EE100A0CF0FFFC41EC100BB0EE4D1AF0EE6D1A20F006
:2074C0004FFF53EC1B2B51EC100B0CF0B7FB53EC1C2B0CF004FB00E009E00CF02DFD09EE6C
:2074E000100A19EE100AA042A8BF39EE4E9AB5EEC09AF1EE10FA38BF39EE0E9AB0EE490A5C
:207500000AF0C6B870BD2DE9F05FA64E814617468846304620F02AFBA6F1F00A4FF0000BF5
:20752000CAF8F9B0CAF8FDB08AF801B1CAF802B1CAF806B18AF80AB199F80010A1F142009D
:207540001828204638BF203161F3070098F80020A2F142011829214638BF203262F307010E
:207560003B78A3F14202182A224638BF203363F3070299F80130A3F1420CBCF1180F38BFBE
:20758000203363F30F2098F80130A3F1420CBCF1180F38BF203363F30F217B78A3F1420CF7
:2075A000BCF1180F38BF203363F30F2299F80230A3F1420CBCF1180F38BF203363F31740B6
:2075C00098F80230A3F1420CBCF1180F38BF203363F31741BB78A3F1420CBCF1180F38BF5B
:2075E000203363F317420124C3B2A51E732B08BFF57013D00BDC642B08BFB5710ED0652BAE
:2076000008BF34700AD06E2B08BFF47006E0752B08BFB47102D0772B08BF3570C0F3072332
:20762000732B08BF357113D00BDC642B08BFF5710ED0652B08BF74700AD06E2B08BF3471C1
:2076400006E0752B08BFF47102D0772B08BF7570C0F30740732808BF757113D00BDC6428C0
:2076600008BF35720ED0652808BFB4700AD06E2808BF747106E0752808BF347202D07728C9
:2076800008BFB570CBB24848732B08BFC57013D00BDC642B08BF85710ED0652B08BF047098
:2076A0000AD06E2B08BFC47006E0752B08BF847102D0772B08BF0570C1F30723732B08BF27
:2076C000057113D00BDC642B08BFC5710ED0652B08BF44700AD06E2B08BF047106E0752BC0
:2076E00008BFC47102D0772B08BF4570C1F30741732908BF457113D00BDC642908BF0572F4
:207700000ED0652908BF84700AD06E2908BF447106E0752908BF047202D0772908BF857066
:20772000D1B22248732908BFC57013D00BDC642908BF85710ED0652908BF04700AD06E2998
:2077400008BFC47006E0752908BF847102D0772908BF0570C2F30721732908BF05712ED08C
:2077600026DC642908BFC57129D0652908BF447025D06E2908BF047121E0000000000000B2
:20778000580600200000000000000020DCA54C400000000000805640000034430000B443BA
:2077A0000000B443383400204A34002041340020752908BFC47102D0772908BF4570C2F3D6
:2077C0000741732908BF457113D00BDC642908BF05720ED0652908BF84700AD06E2908BF54
:2077E000447106E0752908BF047202D0772908BF8570CAF80BB1CAF80FB18AF813B1FE4E53
:20780000304620F0B3F9CAF81DB1CAF821B18AF825B199F80010A1F142001828384638BF90
:20782000203161F3070098F80020A2F142011829414638BF203262F307013B78A3F142021D
:20784000182A4A4638BF203363F3070299F80130A3F1420CBCF1180F38BF203363F30F2066
:2078600098F80130A3F1420CBCF1180F38BF203363F30F217B78A3F1420CBCF1180F38BF21
:20788000203363F30F2299F80230A3F1420CBCF1180F38BF203363F3174098F80230A3F148
:2078A000420CBCF1180F38BF203363F31741BB78A3F1420CBCF1180F38BF203363F31742CC
:2078C00000F0FF0CCD4BBCF1730F08BFDD7018D00EDCBCF1640F08BF9D7112D0BCF1650F88
:2078E00008BF1C700DD0BCF16E0F08BFDC7008E0BCF1750F08BF9C7103D0BCF1770F08BF61
:207900001D70C0F3072CBCF1730F08BF1D7118D00EDCBCF1640F08BFDD7112D0BCF1650F66
:2079200008BF5C700DD0BCF16E0F08BF1C7108E0BCF1750F08BFDC7103D0BCF1770F08BF5F
:207940005D70C0F30740732808BF5D7113D00BDC642808BF1D720ED0652808BF9C700AD06C
:207960006E2808BF5C7106E0752808BF1C7202D0772808BF9D70CBB2A148732B08BFC570C0
:2079800013D00BDC642B08BF85710ED0652B08BF04700AD06E2B08BFC47006E0752B08BF6D
:2079A000847102D0772B08BF0570C1F30723732B08BF057113D00BDC642B08BFC5710ED035
:2079C000652B08BF44700AD06E2B08BF047106E0752B08BFC47102D0772B08BF4570C1F3C7
:2079E0000741732908BF457113D00BDC642908BF05720ED0652908BF84700AD06E2908BF32
:207A0000447106E0752908BF047202D0772908BF8570D0B2732808BFF57013D00BDC642823
:207A200008BFB5710ED0652808BF34700AD06E2808BFF47006E0752808BFB47102D0772808
:207A400008BF3570C2F30720732808BF357113D00BDC642808BFF5710ED0652808BF74703D
:207A60000AD06E2808BF347106E0752808BFF47102D0772808BF7570C2F30740732804BF04
:207A8000757109F00BBE0EDC642804BF357209F005BE652804BFB47009F000BE6E2808BF1A
:207AA000747109F0FBBD752804BF347209F0F6BD772808BFB57009F0F1BD90ED001AD0EDF8
:207AC000010A90ED022A90ED030A61EE011A61EE202A21EE023A21EE004A20EEA01A60EEAB
:207AE000823A60EE804A62EE020A22EE005A20EE002A08469FED430A5FF0040281ED000AC0
:207B000080ED010A80ED020A0830521EF8D131EEC10A72EE855A72EEC52A30EE600A30EEE5
:207B2000020A81ED000AB0EE000A65EE805A62EE802AC1ED035A73EE645A65EE805AC1EDED
:207B4000065AC1ED012A71EE612A72EEE02A72EE822AC1ED042A73EE842A62EE802AC1EDF9
:207B6000072A73EE242A62EE802AC1ED022A73EEC42A22EE800A81ED050AB1EE610A30EEC3
:207B8000410A30EE200A30EE020A81ED080A70479FED1C0AD0ED004A91ED031AF0EE400A75
:207BA00090ED014A44EE810A91ED025AD1ED015AD0ED023A90ED033AF1EE652A44EE050AEB
:207BC00091ED006AF1EE451AB1EE462A43EEA20A43EE060AC2ED000AF0EE400A44EEA10A94
:207BE00044EE010A43EE860A43EE250AC2ED010AF0EE400A08E000005C3400205334002006
:207C0000653400200000000044EEA50A04EE820A44EE020A04EE220A43EE810A03EEA10A98
:207C200043EE050A03EE010AC2ED020A82ED030A704710B5D0ED010A90ED000A20EEA01A3E
:207C400020EE000AD0ED020A60EEA00A31EE000A30EE800A10EE100A0CF02AF941EC100BFB
:207C600021F0D5F851EC100B0CF066F900EE100A10BD2DE9F00390E8F81389B08DE8F81359
:207C8000036A089390ED000AD0ED010A0127B0EEC00AF0EEE00A0223F4EEC00A4FF0030C16
:207CA000F1EE10FA03DD0227B0EE600A0123D0ED020AF0EEE00AF4EEC00AF1EE10FA03DDA0
:207CC000032702234FF0010C00EB830400EB870014ED010A50ED010A6E4606EB830080EE3B
:207CE000201A06EB8C0406EB870500ED011A14ED010A55ED010A80EE201A04ED011A90EDBA
:207D0000020A50ED010A95ED021A00EEC10A80ED020A94ED020A54ED010A95ED021A00EEDA
:207D2000C10A84ED020A90ED050A50ED010A95ED051A00EEC10A80ED050A94ED050A54ED80
:207D4000010A95ED051A00EEC10A84ED050A94ED020AD0ED020AB0EEC00AF0EEE00AB4EE16
:207D6000E00AF1EE10FA02DD18466346844606EB8C0406EB830694ED020A96ED021A01EB6D
:207D8000870701EB8303C0EE010A01EB8C00C4ED020A94ED052A96ED050A00EEC02A84ED6A
:207DA000052A17ED010A82ED000A13ED011A56ED013A00EE631A82ED011A10ED013A54ED05
:207DC000011A00EE613A01EE603AC3EE022AC2ED022AD6ED054A96ED025A95ED053A02EE1C
:207DE000E41A02EEC30A81EE054A82ED014AD5ED022A04EE620A15ED014A80EE041A82EDBC
:207E0000001A97ED020A82ED030A93ED021A00EE631A82ED041AD0ED025A40EE615A41EE77
:207E2000605A85EE826A82ED056A06EE641A06EE430AC1EE055AC2ED045A05EEE20A80EE30
:207E4000041A82ED031A97ED050A82ED060A93ED051A00EE631A82ED071AD0ED053A40EEA2
:207E6000613A41EE603AC3EE820AC2ED080A00EEE41A00EEC30AC1EE050AC2ED070A00EE8D
:207E8000E20AC0EE040AC2ED060A09B0BDE8F003704770B50D462DED048BB0EE408A0446A0
:207EA000D0ED008AF4EEC88AF1EE10FA22BF91ED000ABDEC048B70BD94ED0C9AB4EEC89A65
:207EC000F1EE10FADEBF91ED0C0ABDEC048B70BDFE4890ED1E0B51EC100B0CF02DF800EED0
:207EE000100AF4EEC88AF1EE10FA84BFBDEC048B70BDB4EEC89AF1EE10FABCBFBDEC048B03
:207F000070BD012302210D201A18520804EB820C1CED010AB4EEC80AF1EE10FA9ABF134694
:207F2000511C10468842EFD8581C04EB800105EB800051ED010A04EB830111ED010A70EE76
:207F4000C00A38EE400A80EE201A50ED010A05EB830010ED010ABDEC048B70EEC00A01EE2D
:207F6000200A70BD2DE9FF5F07462DED0C0BD8482DED108BADF5D36D0DF1A809B0EE40EA8A
:207F8000B0EE44CAF0EE64CAF0EE619AB0EE41DAF0EE60DAB0E87E1189E87E11B0E81E1092
:207FA00032AD0DF20C6985E81E10B0E87E1189E87E11B0E81E100DF22C650DF58A7985E8E4
:207FC0001E10B0E87E1189E87E11B0E81E104DAD0DF5C96985E81E10B0E87E1189E87E1196
:207FE000B0E81E100DF5CD650DF1800985E81E10B0E87E1189E87E1170E85812CDE928128C
:020000040800F2
:2080000000F5B4710DF5D07991E87E1189E87E11D0E96212CDE9701200F5C8710DF5E47901
:2080200091E87E1189E87E11D0E96C12CDE97A1200F5DC700DF5BA78B0E87E1088E87E1026
:2080400090E83F108AAE86E83F10DDF8680700240470DDF86C070470DDF870070470DDF837
:208060000C0790ED000A9B4880ED000ADDF80C1791ED010A80ED010A91ED020A80ED020A10
:208080000846FFF7D6FD914D85ED180A85ED190ADDF81007FFF7CDFDDDF80C07B0EE40AAA6
:2080A00090ED000A8DED9A0A8DEDA40AD0ED010ACDED9B0ACDEDA30AD0ED020ACDEDA60A32
:2080C000CDEDA20ADDF8100790ED001A8DED9C1AC1EE0A1A8DED9F1AD5ED180AC0EE20BA15
:2080E000CDED041A90ED010A8DED9E0A8DEDA00ADDF80C0790ED011A81EE20BA80EE0A1A7F
:208100008DED051ADDF8100790ED020A8DED9D0A8DEDA10ADDF80C0790ED022AC2EE20AA00
:20812000C0EE0A0ACDED060A9FED6B8ADDF87807B0EE489A90F8CD080BEEA19A0BEE019A39
:208140000AEEA09ADFED65EADDF87817012601F10C0901F10808091DCDF88416DDF8781755
:20816000B0EE00FA01F50061CDF84416DDF87817002801F58061AC9140F03082DDF878071B
:20818000F7EE008A80F83040DDF8780780F8CD68DDF8780780F83160DDF8780780ED0ECB90
:2081A0008DED1A8A8DED1B8A8DED1C8A8DED1D8ADDF87807046444648464C46404654465BB
:2081C0008465C4650466DDF87807C0ED188ADDF87807C0ED148ADDF87807C0ED108ADDF871
:2081E000780744668466C466046744678467C467C0F88040C0F88440C0F88840C0F88C401E
:20820000C0F89040DDF8780780ED258ADDF8780780ED268ADDF8780780ED278A9FED300ABD
:20822000DDF878074FF4A27180ED2B0ADDF87807C0ED2C8ADDF87807C0ED2D8ADDF8540753
:2082400090ED000ADDF87807B5EEC00A00F1B800F1EE10FA20D10BF00BFCDDF87807B1EE5E
:20826000040A012280ED2E0A4FEA0200DDF8781702EB820301EBC301801C81ED2E0A511CB8
:20828000DDF8783701EB810203EBC20282ED2E0A4A1C0928EADB2BE00BF0EAFBDDF87807F7
:2082A000B1EE040A80ED2E0A01200146DDF8783700EB800203EBC202401C82ED2E0ADDF889
:2082C000783700EB800203EBC2020BE058060020ECD70208A0340020000000000AD7A33CE6
:2082E0006666663F401C891C82ED2E0A0929DDDBDDF87807314600F5FE701FF03CFCDDF831
:2083000078074FF4B471C0F81442C0F81842C0F81C42C0F82042C0F82442C0F82842C0F82E
:208320002C42C0F83042C0F83442DDF87807C0ED8D8ADDF87807C0ED898ADDF87807C0ED4A
:20834000858ADDF87807C0F83842C0F83C42C0F84042C0F84442C0F84842C0F84C42C0F89A
:208360005042C0F85442C0F85842DDF87807C0ED968ADDF87807C0ED928ADDF87807C0ED8C
:208380008E8ADDF8780700F517700BF071FBDDF8780780EDF18ADDF8780780EDF28ADDF840
:2083A000780780EDF38ADDF8780780EDF48ADDF8780780EDF58ADDF8780780EDF88ADDF8BD
:2083C000780780EDFB8ADDF8780780EDFE8ADDF8780780EDF68ADDF8780780EDF98ADDF889
:2083E000780780EDFC8ADDF8780780EDFF8ADDF8780780EDF78ADDF8780780EDFA8ADDF865
:20840000780780EDFD8AAC9880ED008AAC9880ED018AAC9880ED028AAC9880ED038AAC98B3
:2084200080ED048AAC9880ED058AAC9880ED068AAC9880ED078AAC9880ED08FAAC9880ED1A
:20844000098ADDF8840600F5806080ED098A08F5806080ED098A09F5806080ED098AAC9856
:2084600080ED0D8AAC9880ED0E8AAC98C0ED0F8A51EC1C0B0BF060FD00EE100AAC983221CA
:2084800020EE2E0A00220DF1400C80ED100AAC98904680ED118AAC98C0ED128AAC9880ED43
:2084A000138ADDF87807C0F85044DDF87807C0F85444DDF87807C0F85814DDF87807C0F857
:2084C0005C44DDF80C0790ED000A8DED100ADDF8100790ED000A8DED130ADDF8140790ED82
:2084E000000A8DED160ADDF80C0790ED010A8DED110ADDF8100790ED010A8DED140ADDF8F2
:20850000140790ED010A8DED170ADDF80C0790ED020A8DED120ADDF8100790ED020A8DED27
:20852000150ADDF8140790ED020A8DED180ADDF8780700F58C6303EB82009CED000A614625
:2085400080ED000A4FF0040991ED010A80ED010A91ED020A083180ED020A0830B9F101092F
:20856000F2D1093208F10108B8F11E0FE3DBDDF854074FF47A7190ED000ADDF8440680EDF6
:20858000260ADDF8540790ED010ADDF8440680ED270ADDF8540790ED020ADDF8440680EDF1
:2085A000280ADDF8780780F8A448DDF87807A0F8A648DDF87807A0F8A848DDF87807A0F82F
:2085C000AA18DDF8780780F8AD48DDF8780780F8AE48DDF87807C0F8B04800BF97E80F0005
:2085E0001AAC84E80F00DDF8780780ED0ECB51EC1C0B0BF0A1FC00EE100ACDF8F805AC9896
:2086000020EE2E0A80ED100AFE48AC99B0EE480AD0ED001AD1ED180A90ED011AD0ED022ADA
:2086200001EEA00AD1ED210A91ED3C3A01EE200AD0ED030AB0EE402A91ED2A0A02EE802A8D
:2086400091ED330A00EE802A90ED040ADDF8780700EE032A80EDF82AAC98B0EE482A90ED6D
:20866000193A01EE832A90ED223A01EE032A90ED2B3A02EE832A90ED343A00EE832A90ED94
:208680003D3ADDF8780700EE032A80EDF92AAC98B0EE482A90ED1A3A01EE832A90ED233AC9
:2086A00001EE032A90ED2C3A02EE832A90ED353A00EE832A90ED3E3ADDF8780700EE032A33
:2086C00080EDFA2AAC98B0EE482A90ED1B3A01EE832A90ED243A01EE032A90ED2D3A02EE7C
:2086E000832A90ED363A00EE832A90ED3F3ADDF8780700EE032A80EDFB2AAC98B0EE482AFA
:2087000090ED1C3A01EE832A90ED253A01EE032A90ED2E3A02EE832A90ED373A00EE832AE7
:2087200090ED403ADDF8780700EE032A80EDFC2AAC98B0EE482A90ED1D3A01EE832A90EDFF
:20874000263A01EE032A90ED2F3A02EE832A90ED383A00EE832A90ED413ADDF8780700EE56
:20876000032A80EDFD2AAC98B0EE482A90ED1E3A01EE832A90ED273A01EE032A90ED303A92
:2087800002EE832A90ED393A00EE832A90ED423ADDF8780700EE032A80EDFE2AAC98B0EED2
:2087A000482A90ED1F3A01EE832A90ED283A01EE032A90ED313A02EE832A90ED3A3A00EE76
:2087C000832A90ED433ADDF8780700EE032A80EDFF2AAC98B0EE482A90ED203A01EE832A26
:2087E000D0ED291A01EE212A90ED321A02EE812A90ED3B1A00EE812AD0ED440A00EE202A2D
:2088000080ED002ADDF8780700F57870FFF711FA85ED140ADDF8780700F57B70FFF709FAD2
:2088200085ED150ADDF8780700F57E70FFF701FA85ED160AAC98D5ED140AB0EE6A1AC0EDFA
:20884000010AAC98D5ED150AB0EE4B3AC0ED020AAC98B0EE6B2A80ED030ADDF878079DED3D
:20886000040A80ED900ADDED052ADDF8780762EE810AC0ED932ADDED061ADDF8780741EEE4
:20888000C30AC0ED961A61EE821ADDF8780740EE411A20EE031AC0ED8F0ADDF8780720EE13
:2088A000A00A02EEC21AC0ED921ADDF8780761EEA10A80ED951A21EE011A30EE800A31EE8E
:2088C000000A10EE100A0BF0F3FA41EC100B20F09EFA51EC100B0BF02FFB00EE900ADDF8C4
:2088E000780737AA90ED8F0AC0EE201AC0ED8F1ADDF8780790ED920A80EE201A80ED921A96
:20890000DDF8780790ED952A82EE200A80ED950ADDF8780790ED962AD0ED932A90ED903ACF
:2089200061EE020A40EE620A20EE030A01EEC20A61EEA21AC0ED8E0ADDF8780741EE431A3C
:2089400080ED910ADDF87807C0ED941ADDF8780700F50E7100F50570FFF78BF940A937A8EC
:20896000FEF7D3FA00211D22DDF87837A1EB810003EB8000491C90EDEB0A521E80EDEE0A2A
:2089800090EDEC0A80EDEF0A90EDED0A80EDF00AEAD1DDED400AB0EE000ADDF8780720EE4A
:2089A000801A002364AF1A46C1EE290A1946F3EE0D1AC0ED970ADDED410ADDF8780720EE79
:2089C000801AC1EE290AC0ED980ADDED420ADDF8780760EE800A80EEA90AF3EE0E9A80ED73
:2089E000990ADDF8780700F517785B1C08EB830909F1080059ED010A99ED022A32EE200AB7
:208A000002E00000781800204FF00E0C12F1010290ED031A31EE000A90ED061A1830BCF110
:208A2000010C31EE000AF3D180EE291A09F108004FF00E0C30EEC10A72EE410A20EE000A84
:208A400000EEA00AD0ED030A70EEC10A00EEA00AD0ED060A1830BCF1010C70EEC10A00EE0D
:208A6000A00AEFD107EB8200491CC0EE210A032940ED010AB9DB64980BF01AFA41EC100B8F
:208A800020F0C5F951EC100B0BF056FA649065980BF00EFA41EC100B20F0B9F951EC100B0F
:208AA0000BF04AFA659066980BF002FA41EC100B20F0ADF951EC100B0BF03EFA669064A802
:208AC000FFF7B7F8DDF878070DF2944EF6EE008A80EDF10ADDF8780700F51770CDF88006CB
:208AE000DDF8780700F57270CDF87C060020CDF8FC05CDF88C06CDF88806FB48D0ED101A4A
:208B000090ED0F1ADDF88C06DDF8FC15401C491CDDF88026CDF88C06CDF8FC1502EB80008C
:208B20000121051FAEAB74460DF274421E208C4695ED000A401EA3EC010A04F801CB02F8D1
:208B4000011B01F1010105F10C05F1D10DF27443AEA9821C01EB800401EB8202D4ED000AE6
:208B600012ED010AF4EEC00AF1EE10FA09D9B4EE400AF1EE10FA04D1821C1A54421C1C182C
:208B80006270801C1E28E4DB0220AA904000CDF84006AA98012500F1010CBCF11F0F7DDA23
:208BA000DDF840262846AB1861461F2B02F39C8601225E1B012E47DB0DF2744404EB000BA3
:208BC000AEAF1BF9018C04EB010A07EB880959ED010A1AF9019C07EB890717ED010AF4EEA6
:208BE000C00AF1EE10FA3DD9B4EE400AF1EE10FA38D10EEB0207491C07F8019C994220D1FF
:208C0000604582F28386ACEB0009B9F1000F18DD7F1EABF1020419F0010F02D007F8018F2B
:208C2000641C5FEA69080AD094F801A087F801A014F802AF07F802AFB8F10108F4D14A4461
:208C40004844521C9642B7DA6D1E721E002A47DD0DF274412944491EAEF1010016F0010F0A
:208C60002FD12AE00EEB0207401C07F8018C6045E7D1994282F23B86A3EB0108B8F1000F44
:208C8000DFDD7F1EAAF1020418F0010F02D007F8019F641C5FEA68090CD000E030E094F8BF
:208CA00001A087F801A014F802AF07F802AFB9F10109F2D142444144C3E710F801CF01F889
:208CC00001CF90F901C052100AD000BF10F8024F81F801C090F901C001F8024F521EF5D122
:208CE000701E05D41EF8001028440DF274421154AA981D4603EB000CBCF11F0FFFF650AFF3
:208D0000DDF84006AA901E287FF740AF9DF99114AEA800EB810111ED010AB4EE400AF1EE81
:208D200010FA3CD19DF9821400EB810111ED010AB5EEC00AF1EE10FA34BF012200229DF956
:208D4000831400EB810050ED010AF5EEC00AF1EE10FA34BF0120002082421CD1B4EE410A60
:208D6000F1EE10FA1EBFB0EE402AB4EE612AF1EE10FA10D0F4EE410AF1EE10FA1FBFB0EE9D
:208D8000602AB4EE612AF1EE10FA70EEC00A18BF00EEA80A03D130EE200A20EE280ADDF863
:208DA000FC15DDF87C0600EB810000ED010ADDF88806401CCDF888060328FFF6A3AEDDF88F
:208DC000780700F57270FEF734FFB0EE401AB1EE000A454D8DEDA71A2EEE001AD5ED141A81
:208DE000AC98C1EE810A2DEE801AC0ED090A95ED152AAC98C2EE011A2DEE001AC0ED0A1AAA
:208E000095ED160AAC98C0EE011AC0ED0B1A9DEDA71AF6EE001AAC9821EE211A80ED0C1A67
:208E2000DDF8780700F2244090ED011A71EE200A90ED021A71EE200A90ED031AAC9871EE08
:208E4000200AB5EE001A60EE810A9FED281AC0ED0D0A62EE210AAC9840EE010A9FED240A0E
:208E600020EE80FA80ED06FADFED22EADDF8786796F8CE0880BB01209FED1F8B002786F8D6
:208E8000CE08052406EB870000F5006080ED2EFA06EBC70090ED020B51EC180B53EC102B55
:208EA0000AF01DFE41EC180B641E07F10107E9D100274FF0050800BF06EBC70453EC182BA1
:208EC00094ED020B51EC100B0AF02DFF7F1CC4E90201B8F10108EFD15FF0040406EB8400FD
:208EE00000F500600CE00000580600203333333FCDCC4C3F000000000000000000000000B7
:208F000090ED2D8A80ED2E8A06EBC40090ED020B51EC100B0BF010F800EE100A601E10F0D8
:208F2000FF0440EE08EAD9D106F5006080ED2EFA96ED020B51EC100B0AF0FEFF00EE100A8D
:208F4000AC981FED138B40EE0FEA53EC182BC0ED07EA51EC1C0B0AF0BFFF08D8AC98B7EEF7
:208F6000000A80ED110AAC9880ED130A1DE09FEDFA0B51EC1C0B53EC102B0AF0ADFF64D14A
:208F8000AC980DF20C6190ED070A2AA8FEF781FFAC980DF5C96180ED110AB0EE6E0A45A851
:208FA000FEF777FFAC9880ED130AAC9890ED110A80ED120ADDF87807D5ED18FA90ED2D0A37
:208FC0003FEEC00AB0EEC00A10EE100A0AF070FF41EC100B1FF048FD51EC100B0AF04FFF75
:208FE000DDF868170870DDF87807DD4990ED2D0A3FEEC00AB0EEC00A85ED170AD0ED2B0A93
:20900000AC9879EE600AF0EEE00A30EE200A80ED0E0A10EE100A884259DBDFEDD20AAC98A4
:20902000D14930EE601AF0EE080AB7EE000A01EE200A80ED0F0A10EE100A88424CDDAC98F1
:20904000B1EE040A80ED0F0A46E0DDF8F805DDED2A0A00EE100A2AA945AA20EE200A0623BC
:209060008DED2A0A00EE100ADDED450A20EE200A8DED450ADDF8F805D1ED010A01EE100A7C
:2090800092ED010A61EE200AC1ED010ADDF8F80500EE900A20EE800A82ED010ADDF8F805D6
:2090A00091ED021A00EE900A92ED020A60EE810AC1ED020ADDF8F805083100EE900A20EECF
:2090C000800A82ED020A08325B1ED3D158E7AC98B7EE000A80ED0F0AB7EE00FA3FEECF0AD7
:2090E000B0EEC00A10EE100A0AF0E2FE9FEDA01B53EC112B0AF094FD41EC100B8DEDAA0B52
:20910000AC98C06B0AF0D4FE41EC100B9DEDAA1B1FF036FD51EC100B0AF00EFFAC99964EB3
:20912000964FC863DDF8780790F8310000287AD0DDF8780790F83000002874D1AC98F6EEFF
:20914000000A90ED0D1A0DF5806090EDBA0A20EE200AB4EEC01AF1EE10FA64D2DDF8780717
:209160009DED042A80ED122ADDED051ADDF8780721EEAA1AC0ED151A9DED060ADDF87807B4
:2091800000EE4B1A60EE2B0A80ED180ADDF8780722EE0B0A42EE6A0A80ED111ADDF8780761
:2091A00001EEEB0A21EE011AC0ED140ADDF8780760EEA00A80ED170A60EE001A30EE810AEB
:2091C00031EE800A10EE100A0AF072FE41EC100B1FF01DFE51EC100B0AF0AEFE00EE100AEC
:2091E000DDF87807D0ED110A80EE801A80ED111ADDF87807D0ED141AC1EE800AC0ED140A60
:20920000DDF87807D0ED171A81EE802A80ED172ADDF87807D0ED182AD0ED121A90ED150A6D
:2092200020EEA23A00E056E002EE403A22EE212A21EE000A1AA901EE622A80ED103ADDF886
:20924000780700EEE10A80ED132ADDF8780780ED160ADDF878074030FDF757FEDDF87807CA
:2092600080ED2B9A1AEE100A3044B842DDF878072CBF80ED2CFA80ED2CAA4FF4A271DDF8EC
:209280007807B8300AF0F4FBDDF87807B1EE040A002380ED2E0A01204FEA0001DDF87827E6
:2092A00000EB800C02EBCC02401C82ED2E0A00EB8002DDF878C7401C0CEBC202891C82EDCD
:2092C0002E0A0929EADBDDF87807012180F83130DDF8700701701AAC94E80F007CACA046F4
:2092E00084E80F00DDF87807A0EB080010F1900144BF6FF08F01091A242943DA10F1900F5B
:2093000040D0DDF8780790ED250A01208DED800ADDF8781701EB800208EB800192ED250A24
:20932000801C81ED040A92ED260A092881ED050AEEDB00204FEA000408EB800191ED000A96
:20934000B4EE400AF1EE10FA26D000200921DFED0CFA00F057BD0000000000000000F03FF3
:20936000CDCCCC3DCDCCCC3D0000A04000000000000000000000E03F3233B3C0CCCC4C00EE
:2093800000000000DDF87807242200F1940108F110000AF045FBCCE7401C0D28CCDB9DEDF5
:2093A0001A0AB5EEC00AF1EE10FA02BF9DED1B0AB5EEC00AF1EE10FA7BD19DED1C0AB5EECE
:2093C000C00AF1EE10FA02BF9DED1D0AB5EEC00AF1EE10FA6DD1B8E700281CBF04280828D6
:2093E00000F01085DDF8782702EB8002C2ED10FA00F10100491EEFD1DDF878071AA94030AC
:20940000FDF783FDDDF87807C0ED25FADDF87807C0ED26FADDF87807C0ED27FADDF8540745
:2094200090ED000ADDF8780780ED280ADDF8540790ED010ADDF8780780ED290ADDF85407D6
:2094400090ED020ADDF8780780ED2A0A9FEDFE0ADDF878074FF4A27180ED2B0ADDF878075A
:2094600080ED2CFADDF8780780ED2DFADDF87807B8300AF0FDFADDF87807B1EE040A80EDD6
:209480002E0A01204FEA000100EB8003DDF87827401C02EBC30200EB800382ED2E0ADDF85F
:2094A0007827401C02EBC302891C82ED2E0A0929EADB0DF5806053EC182B90EDBC0B51ECD7
:2094C000100B0AF009FD7CD0AC98B0EE000A90ED0D1A0DF58060D0EDBA0A20EE800AB4EEF8
:2094E000C10AF1EE10FA6CDDDDF87807DDED040AC0ED120ADDED051ADDF8780721EEAA1A6A
:20950000C0ED151A9DED060ADDF8780700EE4B1A80ED180A20EE2B0ADDF8780700EEEA0A26
:2095200060EE8B0A80ED111ADDF8780721EE011A41EEEB0A80ED140ADDF8780720EE000A17
:20954000C0ED170A60EEA00A30EE010A30EE800A10EE100A0AF0ACFC41EC100B1FF057FC10
:2095600051EC100B0AF0E8FC00EE100ADDF87807D0ED110A80EE801A80ED111ADDF878078D
:20958000D0ED140AC0EE801AC0ED141ADDF8780790ED172AC2EE000AC0ED170ADDF87807DF
:2095A00090ED180A90ED152AD0ED122A21EE803A00EEC23A60EEA20A41EE400A21EE020A16
:2095C00000E04DE080ED103ADDF8780701EEE20A1AA9C0ED130ADDF8780780ED160ADDF855
:2095E00078074030FDF791FCDDF8701701200870DDF8780780ED2B9ADDF8780795ED180A88
:2096000080ED2D0A1FEDA20ADDF8780780ED2E0ADDF8780780ED370ADDF8780780ED400AE8
:20962000DDF8780780ED2F0ADDF8780780ED380ADDF8780780ED410ADDF8780780ED300A26
:20964000DDF8780780ED390ADDF8780780ED420ADDF8780780ED6A0ADDF8780780ED7E0A7B
:209660005FEDB9AADDF87807C0ED25AADDF87807C0ED26AADDF87807C0ED27AADDF8780774
